:020000020000FC
:040000000C9422003A
:040010000C948A00C2
:040034000C94B9036C
:100040000C9408040FEF0DBF18E01EBF0027112706
:10005000222733274427552766277727882799277C
:10006000AA27BB27CC27DD27EE27FF2701E0009337
:100070000D0200930F0200E000930E02F9E0EAEA9D
:10008000049100930502009307020093100200936D
:1000900011020093120200931302009314020093C2
:1000A00015020093160200931702E3950491009342
:1000B000040200930602002700E00093C10000E75D
:1000C00007B90FE008B90FEF0AB90BB90FE104B98E
:1000D00000E005B900270FE000936C0002E00093F8
:1000E000680001E000936F0001E000936E007894D7
:1000F0000E94A5030E94B203F9E0EAEA1491249158
:100100003491449150E001E105B9CFEFDFEF992739
:100110000027FFCF309B0C948203319B0C945D0130
:10012000329B0C949800339B0C94A0000C94D40444
:1001300034990C94A80035990C94AF000C94D40415
:1001400034990C94B60035990C94BD000C94D404E9
:1001500035990C94C0010C94B6010C94D4043499D4
:100160000C94C0010C94AA010C94D40435990C94FD
:10017000C4000C94AC010C94D40434990C94C400C5
:100180000C945B010C94D40400910C0200FF0C94BD
:10019000CE0000FD0C9418010C94D40400911002C0
:1001A000003C79F0EAEA00910802E00F0A95EA952E
:1001B000009308020491009310020027EAEA0C94CD
:1001C000D40400911102003CE1F00C94E9000C947D
:1001D000D404F9E0EAEA00910902E00FEA950A95F1
:1001E00000930902049100931102F9E0EAEA09E0A0
:1001F00000930802E00F04910093100200270C9472
:10020000D404F9E0EAEA002705E0E00F0491009346
:10021000110204E0E00F049100931002002705E0B2
:100220000093090209E00093080200270C94D4040B
:1002300000911202003C79F0F9E0EAEA00910A022A
:10024000E00F0A9500930A02EA95049100931202C6
:1002500000270C94D40400911302003CB9F0F9E09B
:10026000EAEA00910B02E00FEA950A9500930B026F
:100270000491009313020027EAEA09E0E00F0093DB
:100280000A020491009312020C94D404F9E0EAEA01
:1002900002E0E00F04910093130201E0E00F0491EB
:1002A0000093120202E000930B0203E000930A02A3
:1002B00000270C94D4040C94D404F9E0EAEA3499AD
:1002C0000C94870135990C948F010C9469010C945E
:1002D000D40400911002102F00911102202F0091E0
:1002E0001202302F00911302402F00910C0200E007
:1002F00000910902702F00910A02802F00910B02D9
:10030000902FEAEA00910802E00F0C94D40435998A
:100310000C949701359B0C94A8010C94D404349947
:100320000C94A601349B0C94A8010C94D404009165
:100330000C0200FD0C94A10101E000930C020C944E
:10034000D40404E000930C020C94D4040C94D40460
:100350000C94D4040C94D40400910C0200FF0C946F
:100360007E0300FD0C9480030C94D40400910C02D5
:1003700000FF0C944E0200FD0C947C030C94D404FA
:1003800000910C0200FF0C94150200FD0C94CC01AE
:100390000C94D4040C94D404E39504910F3FC9F059
:1003A0000093120200910A02039500930A02C09181
:1003B0001302C43A39F00C94D404002700930A02C3
:1003C0000C94D404CC27009112020939D9F00C9472
:1003D000D404F9E0EAEA04910093120200910B02BE
:1003E00003950A30E9F000930B02E00F0491003B03
:1003F00049F000931302002700930A02F9E0EAEAA9
:100400000C94D404002700930B0200930A02F9E035
:10041000EAEA049100931202009313020C94D404AC
:10042000002700930B020C94D4040091080203955A
:10043000009308020027E39504910F3F21F00093F9
:1004400010020C94D404002700930802F9E0EAEAB1
:100450000491009310020091090203950A3061F0A3
:1004600000930902E00F0491023859F00093110241
:10047000F9E0EAEA0C94D4040027009309020C94F2
:10048000D4047727002700930902F9E0EAEA0491EF
:1004900000931002009311020C94D40400910702FF
:1004A000003C11F00C94D40400910602093F91F035
:1004B000043AC9F1003B81F0093961F0023961F079
:1004C000023841F0083F41F0003831F0003911F0B6
:1004D0000C94D4040C94B802F9E0EAEA00910D02FD
:1004E0000395E00F04910F3FB1F0009304020091D7
:1004F0000D02039500930D0200910502003B69F087
:10050000F9E0EAEA0C94D40400910402043A39F0C8
:1005100000270C94D4040C9447030C9484020C948C
:100520005C030C94D404F9E0EAEA00910D0203950F
:10053000E00F04910F3FB1F00093040200910D020F
:10054000039500930D0200910502043A69F0F9E069
:10055000EAEA0C94D40400910402003939F000272F
:100560000C94D4040C94DD020C94AB020C94F202B3
:10057000F9E0EAEA00910D020395E00F04910F3FC4
:10058000B1F00093040200910D02039500930D0257
:1005900000910502003B69F0F9E0EAEA0C94D4040A
:1005A00000910402093F39F000270C94D4040C9404
:1005B00012030C94D0020C942703F9E0EAEA0491A8
:1005C0000093040200910E02039500930E02F9E0DD
:1005D000EAEAE00F049100930502002700930D0260
:1005E0000C94D40401E000930D0200E000930E028D
:1005F000EAEA00910D02E00F049100930402F9E091
:10060000EAEA049100930502F9E0EAEA00910F0298
:10061000039500930F02E00F049100930602002758
:100620000C94D404F9E0EAEA0491009304020091E6
:100630000E02039500930E02F9E0EAEAE00F04913E
:1006400000930502002700930D020C94D40401E0EE
:1006500000930D0200E000930E02EAEA00910D0201
:10066000E00F049100930402F9E0EAEA0491009398
:100670000502F9E0EAEA00910F02039500930F02E8
:10068000E00F04910093060200270C94D404F9E0D3
:10069000EAEA04910093040200910E02039500938C
:1006A0000E02F9E0EAEAE00F049100930502002748
:1006B00000930D020C94D40401E000930D0200E0BD
:1006C00000930E02EAEA00910D02E00F04910093FC
:1006D0000402F9E0EAEA049100930502F9E0EAEA8B
:1006E00000910F02039500930F02E00F0491009315
:1006F000060200270C94D4040C94D4040C94D40463
:100700000C94D404B6B1B07FB03039F0B03149F0B8
:10071000B03261F0B03391F00895449ABB270C9445
:10072000D4044498459ABB270C94D40400E0009369
:100730008100459A449AEAEA0C94D40405E00093B7
:100740008100449845980C94D40400E00093800004
:1007500005E00093810002EC0093850007EF009311
:100760008400089500E004BD05E005BD02EB06BD70
:10077000089502EC0093850007EF009384005395E1
:10078000513011F00C94D4045527E39514911F3F78
:1007900011F00C94D404EAEA14917395E70F2491B4
:1007A000EAEA223811F00C94D4047727EAEA14918B
:1007B00024918395E80F3491EAEA443A21F03F3FCF
:1007C00039F00C94D404393981F0EAEA0C94D40459
:1007D0008827EAEA1491249134919395E90F449182
:1007E000EAEA403B11F00C94D40488279927EAEAFE
:1007F000149124913491449100910D02039500933A
:100800000D02E00F04910093040200270C94D4041D
:1008100002EB06BDA395A43661F065B16F7E613031
:10082000B9F0623001F1643049F1683091F10C9413
:10083000D404AA2765B1607F603121F0603029F0CF
:100840000C9408042C980C9408042C9A0C9408041A
:100850002898299A34990C94700435990C9454046E
:100860002BB90C94D40429982A9A34990C947704BF
:1008700035990C94C2043BB90C94D4042A982B9A51
:1008800034990C947E0435990C9462044BB90C9401
:10089000D4042B98289A34990C94850435990C9497
:1008A00069041BB90C94D404349B0C94BC040C94C0
:1008B0008C040C94D404349B0C94C2040C949204C5
:1008C0000C94D404349B0C94C8040C9498040C9499
:1008D000D404349B0C94CE040C949E040C94D40445
:1008E000359B0C94A4040C948C040C94D404359B78
:1008F0000C94AA040C9492040C94D404359B0C948C
:10090000B0040C9498040C94D404359B0C94B60455
:100910000C949E040C94D404009111020BB900278E
:100920000C94D404009112020BB900270C94D40447
:10093000009113020BB900270C94D404009110020B
:100940000BB900270C94D404009105020BB90027C1
:100950000C94D404009106020BB900270C94D40423
:10096000009107020BB900270C94D40400910402F3
:100970000BB900270C94D404009115020BB9002781
:100980000C94D404009116020BB900270C94D404E3
:10099000009117020BB900270C94D40400911402A3
:1009A0000BB900270C94D4041895C0F9A4B09992FF
:1009B00082F88090FF00C0F9A4B0999282F88090EC
:0209C000FF0036
:00000001FF
